:1000000010C02AC029C028C027C026C025C024C0CF
:1000100023C022C021C020C01FC01EC01DC01CC0E4
:1000200088C011241FBECFE5D2E0DEBFCDBF10E0F7
:10003000A0E6B0E0EEEFF1E002C005900D92A6362A
:10004000B107D9F720E0A6E6B0E001C01D92A936BD
:10005000B207E1F79AD0D1C0D3CFB99AD19AD29A48
:10006000D39AD79AC198D998DA98DB98DF98C19A31
:100070008FE097E20197F1F700C00000C198D99A8C
:100080008FE097E20197F1F700C00000D998DA9A63
:100090008FE097E20197F1F700C00000DA98DB9A51
:1000A0008FE097E20197F1F700C00000DB98DF9A3C
:1000B0008FE097E20197F1F700C00000DF98089504
:1000C000209167003091680081E0232B09F080E0E7
:1000D00008952091670030916800232BD1F721E02B
:1000E00030E03093680020936700982F96959575BF
:1000F000880F8A7A892B982F969596959373880FF7
:10010000880F8C7C892B82958093660082E080BF6B
:1001100083BF83B5816083BD88E686BF12BE8091B0
:10012000660086958FB984E58DB9D59A88E48EB935
:1001300008951F920F920FB60F9211248F939F93E1
:100140008091670090916800019781F482E090E0CF
:100150009093680080936700809166008795882758
:1001600087958F678FB98EE48EB908C0DD9AD59ACE
:100170001DB8769A10926800109267009F918F9137
:100180000F900FBE0F901F901895CF93DF9300D064
:1001900000D000D0CDB7DEB786E0E0E6F0E0DE01CB
:1001A000119601900D928A95E1F757DFB89AC098A1
:1001B000789480E0FF24F3946E0196E0C90ED11C80
:1001C000E82EEF24811102C0C09A01C0C09884E6D5
:1001D00090E0EFE1FEE43197F1F700C000000197F5
:1001E000C1F78E010F5F1F4FF80181918F0171DF01
:0E01F0008E2DC016D106C1F7E3CFF894FFCFD5
:0601FE00546573740A0051
:00000001FF
