:1000000090C0AAC0A9C0A8C0A7C0A6C0A5C0A4C0CF
:10001000A3C01EC1A1C0A0C09FC09EC09DC09CC067
:1000200026C1008040C020A060E0109050D030B0C9
:1000300070F0088848C828A868E8189858D838B8D0
:1000400078F8048444C424A464E4149454D434B4E8
:1000500074F40C8C4CCC2CAC6CEC1C9C5CDC3CBC70
:100060007CFC028242C222A262E2129252D232B2DC
:1000700072F20A8A4ACA2AAA6AEA1A9A5ADA3ABA70
:100080007AFA068646C626A666E6169656D636B688
:1000900076F60E8E4ECE2EAE6EEE1E9E5EDE3EBE10
:1000A0007EFE018141C121A161E1119151D131B1A6
:1000B00071F1098949C929A969E9199959D939B940
:1000C00079F9058545C525A565E5159555D535B558
:1000D00075F50D8D4DCD2DAD6DED1D9D5DDD3DBDE0
:1000E0007DFD038343C323A363E3139353D333B34C
:1000F00073F30B8B4BCB2BAB6BEB1B9B5BDB3BBBE0
:100100007BFB078747C727A767E7179757D737B7F7
:1001100077F70F8F4FCF2FAF6FEF1F9F5FDF3FBF7F
:100120007FFF11241FBECFE5D2E0DEBFCDBF10E0C0
:10013000A0E6B0E0ECE4F9E002C005900D92AA362A
:10014000B107D9F720E0AAE6B0E001C01D92AE36B3
:10015000B207E1F7E2D0F8C353CFD09817B880E8E0
:1001600086B981E081B90895369A3699FECF84B177
:1001700095B10895E82FF0E0EE5DFF4F849108956A
:10018000B99AD19AD29AD39AD79AC198D998DA982B
:10019000DB98DF98C19A89EE95E40197F1F700C0EA
:1001A000C198D99A89EE95E40197F1F700C0D998E2
:1001B000DA9A89EE95E40197F1F700C0DA98DB9AB4
:1001C00089EE95E40197F1F700C0DB98DF9A89EE9C
:1001D00095E40197F1F700C0DF980895D69ADE986C
:1001E00083E88FBD81E08EBD12BC80E092E09BBDB4
:1001F0008ABD08959BBD8ABD089510926D00D59A61
:10020000DD9A80B7826080BF83B7826083BF85E458
:1002100086BF089519BE1DB821E020936D009C0192
:100220002F5F3F4F30936B0020936A00FC01808169
:10023000A1DF80936C0080916C0086958FB912BE0F
:100240008EE286BF8EE48EB984E58DB981E0089593
:100250001F920F920FB60F9211248F938EE286BFDA
:1002600019BE8F910F900FBE0F901F9018951F927F
:100270000F920FB60F9211242F933F934F935F93DA
:100280006F937F938F939F93AF93BF93EF93FF935E
:1002900080916D008130E9F480916C00880F81605D
:1002A0008FB988E48EB984E58DB982E080936D00C2
:1002B000FF91EF91BF91AF919F918F917F916F913E
:1002C0005F914F913F912F910F900FBE0F901F9014
:1002D000189580916D00823059F7E0916A00F09195
:1002E0006B0080818823A9F0CF01019690936B0069
:1002F00080936A0080813EDF80936C0080916C0067
:1003000086958FB912BE81E080936D008EE48EB920
:10031000CFCF1DB810926D00CBCFCF93DF93CDB769
:10032000DEB7A0970FB6F894DEBF0FBECDBF8E012B
:100330000F5F1F4F80E2F80111928A95E9F7D19A79
:10034000D9985BDF4BDF09DF7894F12CAA24A394C2
:1003500080E6C82E80E0D82EFA2409F1D99A80E0F0
:1003600092E048DF01DFE82EB92E44DFBF92EF9222
:10037000DF92CF921F930F9316D0C8014BDFF3E1AA
:1003800022EB8BE2F15020408040E1F700C00000FA
:100390000F900F900F900F900F900F90DDCFD99886
:1003A00080E091E0DECFAEE0B0E0E8EDF1E0A3C2A6
:1003B0000D891E8986E08C831A8309838FEF9FE75E
:1003C0009E838D83AE01475E5F4F6F89788DCE012E
:1003D000019609D02F813885020F131FF801108272
:1003E0002E96E4E0A4C2ABE0B0E0E8EFF1E075C225
:1003F0007C013B018A01FC0117821682838181FF07
:10040000BAC1CE0101965C01F7019381F30193FD1E
:10041000859193FF81913F01882309F449C1853279
:1004200039F493FD859193FF81913F01853221F449
:10043000B70190E0B9D1E8CF912C212C312CFFE10C
:10044000F31538F08B3211F190F4803209F18332D8
:1004500029F137FC3CC020ED280F2A3050F536FE3C
:1004600020C0892D6AE030D2922E980E06C08D32BF
:1004700091F0803371F7689430F8F30193FD859122
:1004800093FF81913F018111DACF21C0689431F847
:10049000689432F8F2CF689433F8EFCF689434F868
:1004A000ECCF822D6AE010D2222E280E689435F807
:1004B000E4CF8E3229F436FCFBC0689436F8DDCFE9
:1004C0008C3619F4689437F8D8CF8836B1F2982F63
:1004D0009F7D95549330D8F0833691F18337B1F1F5
:1004E000833509F05EC02801F2E04F0E511CF8017F
:1004F000C080D180692D70E036FC02C06FEF7FEFC5
:10050000C6013CD14C01689437F882010AC00C5FE7
:100510001F4F2FE3298388248394912C6501E8944D
:1005200037F833FE2AC0522C8114910459F5552016
:1005300009F46ACFB70180E290E036D15A94F7CF40
:10054000F801808189830E5F1F4FE5CF2801F2E01B
:100550004F0E511CF801C080D180692D70E036FC2F
:1005600002C06FEF7FEFC60114D14C018201D7CFDB
:10057000B70180E290E018D12A942814190409F0F8
:10058000B8F7D1CFF60137FC859137FE81916F0125
:10059000B70190E009D151105A94F1E08F1A9108F7
:1005A000C3CF843619F0893609F073C0F80137FEDD
:1005B00067C060817181828193810C5F1F4FF32D31
:1005C000FF763F2E97FF09C09095809570956195B5
:1005D0007F4F8F4F9F4F689437F82AE030E0A50196
:1005E00013D1C82ECA18DC2C832C36FE0CC0E8941C
:1005F00080F8C91440F434FE05C032FC03C0F32D6A
:10060000FE7E8F2ED92C84FE90C0FE01EC0DF11DD4
:100610008081803309F082C0282D297E822E882D8A
:100620008870582E83FC8FC080FE89C09C2CD21409
:1006300018F42C0C922C9D1884FE8BC0B70180E31B
:1006400090E0B2D082FE08C088E790E081FE02C050
:1006500088E590E0B701A8D0C91408F486C0CA9410
:10066000D12C9FEFC91AD90ACA0CDB1CF601829162
:100670006F01B70190E098D0AC14BD04B9F757CF23
:1006800060817181072E000C880B990B0E5F1F4F44
:1006900096CFD32CE894D4F82AE030E0853731F1B6
:1006A000232D297FD22E8F36F9F040F48835A1F022
:1006B000F701868197812B96E2E12BC1803749F0C3
:1006C0008837B1F7D4FE02C06894D2F820E130E058
:1006D0000DC06894D4F8F6CF34FE03C0822F866034
:1006E000D82E20E132E002C028E030E0F801D7FE49
:1006F0000EC060817181828193810C5F1F4FA501C3
:1007000083D0C82ECA183D2CE89437F86CCF60818E
:10071000718190E080E00E5F1F4FF1CF82FC02C03C
:10072000D3947DCFD394D3947ACF882D867809F44F
:1007300076CFF6CFB70180E290E036D0D394D214D2
:10074000C8F3512C79CF522C5D18D21408F474CF11
:10075000F8CF882D867809F47FCF8BE281FE80E286
:1007600087FC8DE2B70190E076CFB70180E390E09F
:100770001BD09A9471CF8FEF9FEF9DCFFC01059016
:10078000615070400110D8F7809590958E0F9F1F93
:100790000895FC016150704001900110D8F78095D8
:1007A00090958E0F9F1F08950F931F93CF93DF9304
:1007B000182F092FEB018B8181FD09C01FEF0FEF6F
:1007C000812F902FDF91CF911F910F91089582FF7C
:1007D00014C02E813F818C819D81281739073CF4FC
:1007E000E881F981CF0101969983888310838E81F6
:1007F0009F8101969F838E83E3CFE885F985812FC2
:100800000995892BA1F3DACFFA01AA27283061F1E3
:10081000203191F1E8946F936E7F6E5F7F4F8F4F21
:100820009F4FAF4FB1E040D0B4E03ED0670F781F8C
:10083000891F9A1FA11D680F791F8A1F911DA11D75
:100840006A0F711D811D911DA11D22D009F46894AC
:100850003F91062E000C3019000C000C3019305D51
:100860003193CEF6CF010895462F4770405D4193F6
:10087000B3E00FD0C9F7F6CF462F4F70405D4A3333
:1008800018F0495D31FD4052419302D0A9F7EACFFB
:10089000B4E0A6959795879577956795BA95C9F72A
:1008A00000976105710508959B01AC010A2E06941D
:1008B0005795479537952795BA95C9F7620F731FD6
:1008C000841F951FA01D0895002480FD060E660F4D
:1008D00011F08695D1F7802D08952F923F924F9277
:1008E0005F926F927F928F929F92AF92BF92CF92C0
:1008F000DF92EF92FF920F931F93CF93DF93CDB7C9
:10090000DEB7CA1BDB0B0FB6F894DEBF0FBECDBF40
:1009100009942A88398848885F846E847D848C8411
:100920009B84AA84B984C884DF80EE80FD800C811A
:100930001B81AA81B981CE0FD11D0FB6F894DEBFFD
:0C0940000FBECDBFED010895F894FFCF6D
:0A094C004144433A2025640A0000EC
:00000001FF
