:1000000090C0AAC005C1A8C0A7C0A6C0A5C0A4C072
:10001000A3C018C1A1C0A0C09FC09EC09DC09CC06D
:1000200020C1008040C020A060E0109050D030B0CF
:1000300070F0088848C828A868E8189858D838B8D0
:1000400078F8048444C424A464E4149454D434B4E8
:1000500074F40C8C4CCC2CAC6CEC1C9C5CDC3CBC70
:100060007CFC028242C222A262E2129252D232B2DC
:1000700072F20A8A4ACA2AAA6AEA1A9A5ADA3ABA70
:100080007AFA068646C626A666E6169656D636B688
:1000900076F60E8E4ECE2EAE6EEE1E9E5EDE3EBE10
:1000A0007EFE018141C121A161E1119151D131B1A6
:1000B00071F1098949C929A969E9199959D939B940
:1000C00079F9058545C525A565E5159555D535B558
:1000D00075F50D8D4DCD2DAD6DED1D9D5DDD3DBDE0
:1000E0007DFD038343C323A363E3139353D333B34C
:1000F00073F30B8B4BCB2BAB6BEB1B9B5BDB3BBBE0
:100100007BFB078747C727A767E7179757D737B7F7
:1001100077F70F8F4FCF2FAF6FEF1F9F5FDF3FBF7F
:100120007FFF11241FBECFE5D2E0DEBFCDBF10E0C0
:10013000A0E6B0E0EEE9F3E002C005900D92A8362B
:10014000B107D9F720E0A8E6B0E001C01D92A537BD
:10015000B207E1F7F7D021C153CFE82FF0E0EE5D11
:10016000FF4F8491089510926B00D698D59ADD9A2E
:1001700080B7826080BF83B7826083BF80E18ABF1F
:10018000969A8BB780618BBF8EE286BF08950F93DE
:100190001F93CF93C0916000CF5FC77020916C0018
:1001A000C21769F08C01EC2FF0E0E359FF4F80811A
:1001B000D4DFF8018083C093600081E001C080E05B
:1001C000CF911F910F91089520916B0021111EC0B6
:1001D000FC01969819BE1DB881E080936B00CF0199
:1001E000019690936900809368008081B6DF8093C8
:1001F0006A0080916A0086958FB912BE8FE186BF32
:100200008EE48EB984E58DB981E0089580E008958B
:100210001F920F920FB60F9211248F93CE990CC09C
:1002200012BA12BE8EE286BF82E088BF89BF88E420
:100230008EB98DB184648DB98F910F900FBE0F90E0
:100240001F9018951F920F920FB60F9211248F9343
:100250008FE186BF19BE8F910F900FBE0F901F9038
:1002600018951F920F920FB60F9211242F933F9360
:100270004F935F936F937F938F939F93AF93BF93AE
:10028000EF93FF9380916B00811113C01DB89FB154
:1002900080916C008F5F877020916000821731F031
:1002A000E0916C00F0E0E359FF4F908380936C0085
:1002B00037C080916B00813069F480916A00880FAB
:1002C00081608FB988E48EB984E58DB982E080932E
:1002D0006B0027C080916B00823019F5E0916800B7
:1002E000F091690080818823A9F0CF010196909355
:1002F000690080936800808130DF80936A0080917C
:100300006A0086958FB912BE81E080936B008EE4FF
:100310008EB907C01DB810926B008AB780618ABF82
:10032000969AFF91EF91BF91AF919F918F917F919D
:100330006F915F914F913F912F910F900FBE0F9052
:100340001F901895CF93DF9300D000D000D0CDB789
:10035000DEB786E0E1E6F0E0DE01119601900D9255
:100360008A95E1F7D09AD898FEDE789480E001E093
:10037000182F1027811102C0D89A01C0D89823E104
:1003800082EB9BE2215080409040E1F700C00000EA
:0E039000CE01019619DF812FEBCFF894FFCF3D
:08039E0007546573740A0000A6
:00000001FF
