:1000000010C02AC029C028C027C026C025C024C0CF
:1000100023C099C021C020C01FC01EC01DC01CC06D
:100020009FC011241FBECFE5D2E0DEBFCDBF10E0E0
:10003000A0E6B0E0E4E4F2E002C005900D92A8363C
:10004000B107D9F720E0A8E6B0E001C01D92AB36B9
:10005000B207E1F7BAD0F4C0D3CFB99AD19AD29A05
:10006000D39AD79AC198D998DA98DB98DF98C19A31
:100070008FE097E20197F1F700C00000C198D99A8C
:100080008FE097E20197F1F700C00000D998DA9A63
:100090008FE097E20197F1F700C00000DA98DB9A51
:1000A0008FE097E20197F1F700C00000DB98DF9A3C
:1000B0008FE097E20197F1F700C00000DF98089504
:1000C000809168009091690020E0892B09F421E07B
:1000D000822F0895282FC19A80916800909169001D
:1000E000892BD1F781E090E09093690080936800BC
:1000F000922F990F9A7A26952575922B892F880F22
:10010000880F8C7C969596959373892B982F929552
:100110009F708295807F982B90936A0092E090BFA9
:1001200093BF83B5816083BD88E686BF12BE99BF49
:1001300080916A0086958FB984E58DB9D59A88E457
:100140008EB9C19808951F920F920FB60F92112485
:10015000DF9A689ADF980F900FBE0F901F90189546
:100160001F920F920FB60F9211248F939F93D99ADB
:100170008091680090916900019791F4DA9A82E089
:1001800090E0909369008093680080916A00879561
:10019000882787958F678FB98EE48EB9DA980DC05E
:1001A000DB9ADD9AD59A1DB8769A10926900109262
:1001B000680089B78D7F89BFDB98D9989F918F910F
:1001C0000F900FBE0F901F901895CF93DF93CDB770
:1001D000DEB728970FB6F894DEBF0FBECDBF88E01C
:1001E000E0E6F0E0DE01119601900D928A95E1F7CC
:1001F00034DFB89AC098789480E0FF24F3946E01BD
:1002000098E0C90ED11CE82EEF24811102C0C09ADB
:1002100001C0C09882E390E0EFE1FEE43197F1F78E
:1002200000C000000197C1F78E010F5F1F4FF8015A
:1002300081918F014FDF8E2DC016D106C1F7E3CF1C
:04024000F894FFCF60
:0802440055005500AA00AA00B4
:00000001FF
