:1000000090C0AAC0A9C0A8C0A7C0A6C0A5C0A4C0CF
:10001000A3C01EC1A1C0A0C09FC09EC09DC09CC067
:1000200026C1008040C020A060E0109050D030B0C9
:1000300070F0088848C828A868E8189858D838B8D0
:1000400078F8048444C424A464E4149454D434B4E8
:1000500074F40C8C4CCC2CAC6CEC1C9C5CDC3CBC70
:100060007CFC028242C222A262E2129252D232B2DC
:1000700072F20A8A4ACA2AAA6AEA1A9A5ADA3ABA70
:100080007AFA068646C626A666E6169656D636B688
:1000900076F60E8E4ECE2EAE6EEE1E9E5EDE3EBE10
:1000A0007EFE018141C121A161E1119151D131B1A6
:1000B00071F1098949C929A969E9199959D939B940
:1000C00079F9058545C525A565E5159555D535B558
:1000D00075F50D8D4DCD2DAD6DED1D9D5DDD3DBDE0
:1000E0007DFD038343C323A363E3139353D333B34C
:1000F00073F30B8B4BCB2BAB6BEB1B9B5BDB3BBBE0
:100100007BFB078747C727A767E7179757D737B7F7
:1001100077F70F8F4FCF2FAF6FEF1F9F5FDF3FBF7F
:100120007FFF11241FBECFE5D2E0DEBFCDBF10E0C0
:10013000A0E6B0E0E8E6F9E002C005900D92AA362C
:10014000B107D9F720E0AAE6B0E001C01D92AE36B3
:10015000B207E1F7E2D006C453CFD09817B880E8D1
:1001600086B981E081B90895369A3699FECF84B177
:1001700095B10895E82FF0E0EE5DFF4F849108956A
:10018000B99AD19AD29AD39AD79AC198D998DA982B
:10019000DB98DF98C19A89EE95E40197F1F700C0EA
:1001A000C198D99A89EE95E40197F1F700C0D998E2
:1001B000DA9A89EE95E40197F1F700C0DA98DB9AB4
:1001C00089EE95E40197F1F700C0DB98DF9A89EE9C
:1001D00095E40197F1F700C0DF980895D69ADE986C
:1001E00083E88FBD81E08EBD12BC80E092E09BBDB4
:1001F0008ABD08959BBD8ABD089510926D00D59A61
:10020000DD9A80B7826080BF83B7826083BF85E458
:1002100086BF089519BE1DB821E020936D009C0192
:100220002F5F3F4F30936B0020936A00FC01808169
:10023000A1DF80936C0080916C0086958FB912BE0F
:100240008EE286BF8EE48EB984E58DB981E0089593
:100250001F920F920FB60F9211248F938EE286BFDA
:1002600019BE8F910F900FBE0F901F9018951F927F
:100270000F920FB60F9211242F933F934F935F93DA
:100280006F937F938F939F93AF93BF93EF93FF935E
:1002900080916D008130E9F480916C00880F81605D
:1002A0008FB988E48EB984E58DB982E080936D00C2
:1002B000FF91EF91BF91AF919F918F917F916F913E
:1002C0005F914F913F912F910F900FBE0F901F9014
:1002D000189580916D00823059F7E0916A00F09195
:1002E0006B0080818823A9F0CF01019690936B0069
:1002F00080936A0080813EDF80936C0080916C0067
:1003000086958FB912BE81E080936D008EE48EB920
:10031000CFCF1DB810926D00CBCFCF93DF93CDB769
:10032000DEB7A0970FB6F894DEBF0FBECDBF8E012B
:100330000F5F1F4F80E2F80111928A95E9F7D19A79
:10034000D9985BDF4BDF09DF7894F12CAA24A394C2
:1003500080E6C82E80E0D82EFA2411F0D99A01C088
:10036000D99802DFE82EB92E45DFBF92EF92DF92D7
:10037000CF921F930F9312D0C8014CDFF3E122EB11
:100380008BE2F15020408040E1F700C000000F9068
:100390000F900F900F900F900F90DECFAEE0B0E077
:1003A000E3EDF1E0B6C20D891E8986E08C831A83E5
:1003B00009838FEF9FE79E838D83AE01475E5F4F7A
:1003C0006F89788DCE01019608D0EF81F885E00F16
:1003D000F11F10822E96E4E0B8C2ABE0B0E0E2EF8D
:1003E000F1E089C26C017B018A01FC01178216824F
:1003F000838181FFC0C1CE0101963C01F60193814A
:10040000F70193FD859193FF81917F01882309F482
:10041000AEC1853239F493FD859193FF81917F01BF
:10042000853221F4B60190E0C1D1E8CF912C212C86
:10043000312CFFE1F315E0F08B3279F038F48032A3
:1004400079F08332A9F4232D206110C08D3259F048
:10045000803371F4232D216009C0832D8260382EF2
:10046000E32DE46022C0F32DF86025C0322E27C0B2
:1004700037FC2DC020ED280F2A3088F436FE06C048
:10048000892D6AE02FD2922E980E19C0822D6AE033
:1004900029D2222E280E832D8062382E10C08E3253
:1004A00031F436FC64C1E32DE0643E2E08C08C3686
:1004B00021F4F32DF0683F2E02C0883641F4F70195
:1004C00093FD859193FF81917F018111B2CF982F88
:1004D0009F7D9554933028F40C5F1F4F2FE32983A1
:1004E0000DC0833631F0833771F0833509F055C084
:1004F00020C0F801808189830E5F1F4F8824839478
:10050000912C530112C02801F2E04F0E511CF8014A
:10051000A080B18036FE03C0692D70E002C06FEF8D
:100520007FEFC50138D14C018201F32DFF773F2EBB
:1005300015C0280122E0420E511CF801A080B180B4
:1005400036FE03C0692D70E002C06FEF7FEFC5017A
:1005500017D14C01F32DF0683F2E820133FC19C0F6
:10056000822D90E088169906A0F4B60180E290E012
:100570001DD12A94F5CFF50137FC859137FE819185
:100580005F01B60190E012D121102A9421E0821A75
:1005900091088114910479F7E1C0843611F089360D
:1005A00039F5F80137FE07C060817181828193813E
:1005B0000C5F1F4F08C060817181072E000C880BF3
:1005C000990B0E5F1F4FF32DFF763F2E97FF09C04B
:1005D00090958095709561957F4F8F4F9F4FF068F4
:1005E0003F2E2AE030E0A3011DD1882E861844C09A
:1005F000853731F4232D2F7EB22E2AE030E025C03E
:10060000932D997FB92E8F36C1F018F4883579F083
:10061000AEC0803719F0883721F0A9C0E92FE0611A
:10062000BE2EB4FE0DC0FB2DF460BF2E09C034FEFB
:100630000AC0292F2660B22E06C028E030E005C08F
:1006400020E130E002C020E132E0F801B7FE07C04F
:1006500060817181828193810C5F1F4F06C0608130
:10066000718180E090E00E5F1F4FA301DBD0882EE8
:100670008618FB2DFF773F2E36FE0DC0232D2E7FD3
:10068000A22E891458F434FE0BC032FC09C0832D0D
:100690008E7EA82E05C0B82CA32C03C0B82C01C098
:1006A000B92CA4FE0FC0FE01E80DF11D808180333E
:1006B00021F49A2D997EA92E09C0A2FE06C0B394FA
:1006C000B39404C08A2D867809F0B394A3FC10C0BB
:1006D000A0FE06C0B21480F4280C922C9B180DC00A
:1006E000B21458F4B60180E290E060D0B394F8CF31
:1006F000B21418F42B1802C0982C212CA4FE0FC0A1
:10070000B60180E390E052D0A2FE16C0A1FC03C067
:1007100088E790E002C088E590E0B6010CC08A2D21
:10072000867851F0A1FE02C08BE201C080E2A7FCF6
:100730008DE2B60190E03AD0891430F4B60180E33E
:1007400090E034D09A94F8CF8A94F301E80DF11D2B
:100750008081B60190E02AD08110F6CF222009F4E2
:100760004DCEB60180E290E021D02A94F7CFF60179
:100770008681978102C08FEF9FEF2B96E2E1D7C071
:10078000FC010590615070400110D8F7809590955C
:100790008E0F9F1F0895FC01615070400190011061
:1007A000D8F7809590958E0F9F1F08950F931F93F4
:1007B000CF93DF93FB01238121FD03C08FEF9FEFD8
:1007C0002CC022FF16C046815781248135814217F3
:1007D000530744F4A081B1819D012F5F3F4F3183C6
:1007E00020838C93268137812F5F3F4F3783268369
:1007F00014C08B01EC01FB010084F185E02D09950B
:10080000892BE1F6D80116968D919C911797019648
:1008100017969C938E931697CE01DF91CF911F91DF
:100820000F910895FA01AA27283061F1203191F142
:10083000E8946F936E7F6E5F7F4F8F4F9F4FAF4FE8
:10084000B1E040D0B4E03ED0670F781F891F9A1FF7
:10085000A11D680F791F8A1F911DA11D6A0F711DAF
:10086000811D911DA11D22D009F468943F91062E8F
:10087000000C3019000C000C3019305D3193CEF6AD
:10088000CF010895462F4770405D4193B3E00FD0EC
:10089000C9F7F6CF462F4F70405D4A3318F0495DD7
:1008A00031FD4052419302D0A9F7EACFB4E0A695BA
:1008B0009795879577956795BA95C9F700976105DC
:1008C000710508959B01AC010A2E06945795479532
:1008D00037952795BA95C9F7620F731F841F951F27
:1008E000A01D0895002480FD060E660F11F0869568
:1008F000D1F7802D08952F923F924F925F926F9281
:100900007F928F929F92AF92BF92CF92DF92EF929F
:10091000FF920F931F93CF93DF93CDB7DEB7CA1B20
:10092000DB0B0FB6F894DEBF0FBECDBF09942A884B
:10093000398848885F846E847D848C849B84AA84F3
:10094000B984C884DF80EE80FD800C811B81AA8180
:10095000B981CE0FD11D0FB6F894DEBF0FBECDBF4B
:08096000ED010895F894FFCFAA
:0A0968004144433A2025640A0000D0
:00000001FF
